:0400000047EF00F0D6
:10000800FACF01F0FBCF02F0E9CF03F0EACF04F01A
:10001800E1CF05F0E2CF06F0D9CF07F0DACF08F04C
:10002800F3CF09F0F4CF0AF0F6CF0BF0F7CF0CF0CE
:10003800F8CF0DF0F5CF0EF0F2A201D001D006D026
:10004800000E186E010E176EF29200D00EC0F5FF6A
:100058000DC0F8FF0CC0F7FF0BC0F6FF0AC0F4FF95
:1000680009C0F3FF08C0DAFF07C0D9FF06C0E2FFE6
:1000780005C0E1FF04C0EAFF03C0E9FF02C0FBFFBF
:1000880001C0FAFF110055EF02F0240E0F6EE70EC3
:10009800E82EFED70F2EFCD7000EF66E000EF76E78
:1000A8001A0EF86E380EF56E0C00120E0F6EF30E67
:1000B800E82EFED70F2EFCD7000EF66E000EF76E58
:1000C8001A0EF86E380EF56E0C00040E0F6E950EB3
:1000D800E82EFED70F2EFCD700D0000EF66E000ECD
:1000E800F76E1A0EF86E380EF56E0C00040E0F6ED1
:1000F800950EE82EFED70F2EFCD700D0000EF66E18
:10010800000EF76E1A0EF86E380EF56E0C00040E1F
:100118000F6E950EE82EFED70F2EFCD700D0000EDE
:10012800F66E000EF76E1A0EF86E140EF56E0C00D1
:10013800040E0F6E950EE82EFED70F2EFCD700D0BA
:10014800000EF66E000EF76E1A0EF86E0E0EF56EB5
:100158000C00040E0F6E950EE82EFED70F2EFCD75E
:1001680000D0000EF66E000EF76E1A0EF86E060E30
:10017800F56E0C00040E0F6E950EE82EFED70F2EAE
:10018800FCD700D0000EF66E000EF76E1A0EF86E51
:10019800020EF56E0C00080E0F6E2C0EE82EFED720
:1001A8000F2EFCD700D0000EF66E000EF76E1A0E5A
:1001B800F86E010EF56E0C00080E0F6E2C0EE82E70
:1001C800FED70F2EFCD700D0120019503E0AD8A433
:1001D80001D001D007D049EC00F0000E186E000ED7
:1001E800176E65D019503D0AD8A401D001D007D0A8
:1001F8007CEC01F0000E186E000E176E58D01950E6
:100208003C0AD8A401D001D007D05CEC01F0000E64
:10021800186E000E176E4BD019503A0AD8A401D0A8
:1002280001D00BD0166E2B0E146E16509CEC01F0FC
:10023800000E186E000E176E3AD019503B0AD8A45B
:1002480001D001D00BD0166E2D0E146E16509CECFA
:1002580001F0000E186E000E176E29D019503F0AD3
:10026800D8A401D001D007D0BCEC01F0000E186E64
:10027800000E176E1CD019503C0AD8A401D001D02A
:1002880007D07CEC01F0000E186E000E176E0FD030
:1002980019C014F09CEC01F0000E186E000E176ED9
:1002A80006D005D004D003D002D001D000D012006F
:1002B800000EF66E000EF76E1A0EF86E100EF56E42
:1002C8000C0001D000D0000EF66E000EF76E1A0E6C
:1002D800F86E0800F5CF14F014BE01D001D0F3D7A2
:1002E80000D0000E106E010E0F6EFBEC01F0120034
:1002F800000EF66E000EF76E1A0EF86E140EF56EFE
:100308000C0001D000D0000EF66E000EF76E1A0E2B
:10031800F86E0800F5CF14F014BE01D001D0F3D761
:1003280000D0000E106E010E0F6EFBEC01F01200F3
:10033800020EF66E000EF76E1A0EF86E14C0F5FF78
:100348000C0001D000D0000EF66E000EF76E1A0EEB
:10035800F86E0800F5CF15F015BE01D001D0F3D71F
:1003680000D0000E106E010E0F6EFBEC01F01200B3
:10037800000EF66E000EF76E1A0EF86EC00EF56ED1
:100388000C0001D000D0000EF66E000EF76E1A0EAB
:10039800F86E0800F5CF14F014BE01D001D0F3D7E1
:1003A80000D0000E106E010E0F6EFBEC01F0120073
:1003B80018EC02F049EC00F031EC02F05BEC02F0D2
:1003C80000D017041810D8A401D001D0FAD746ECF1
:1003D80002F0196E19C01CFFE9EC00F0000E186E4F
:1003E800000E176EEED7EDD7ECD747EF00F0000EF2
:1003F800136E000E126E0AD0040E116E950EE82EC2
:10040800FED7112EFCD700D0124A132A1350800AA7
:10041800116E0F50125C1050800A1158D8A001D0EC
:1004280001D0EAD700D012009368000E9A6E949C0F
:10043800949E98929880F292A00E0F010F01266F59
:10044800000E0F010F01256F000E0F010F01246F21
:10045800000E0F010F01236F1200200E0F010F0174
:10046800216F900E0F010F01226F000E0F010F0177
:10047800206F000E0F010F011F6F110E0F010F01EA
:100488001E6F1200000EF66E000EF76E180EF86E54
:100498000800F5500F0B0F6E300E0F260F5000D0CE
:1004A8001200196A186A176A0001DCEF01F0000EE1
:0A04B800F26EF28CF28EF288120050
:020000040020DA
:08000000FFFFFFFFFFFFFFFF00
:020000040030CA
:0E0000001D036100018B81FFFFC0FFE0FF4088
:00000001FF
