:04000000D9EF0BF039
:10100000003100560000000E096E000E906E1F0E9B
:10101000916E000E996E000E9A6E919A918C919835
:10102000040E6AEC0BF091880C0E6AEC0BF02AEFC0
:1010300008F0092A0C0E6AEC0BF0C80E096423EFC5
:1010400008F025EF08F02AEF08F08B828F808B9450
:10105000000E096E13EC0BF00009D8B432EF08F063
:1010600034EF08F019EF08F00F0E056E210E066E32
:10107000270E61EC0AF0000E056E220E066E000EC1
:1010800061EC0AF0000E056E240E066E000E61EC97
:101090000AF07B0E056E400E066E000E61EC0AF043
:1010A000000E056E410E066E280E61EC0AF0800EF1
:1010B000056E420E066E000E61EC0AF0000E056E23
:1010C000430E066E280E61EC0AF0800EADEC0BF0BC
:1010D0009C0EADEC0BF0A00EADEC0BF0700E056E9F
:1010E000020EECEC0AF012000E6E0EC001F0026A65
:1010F000000E046E060E036EDDEC08F00950280D9C
:10110000F3CF0AF0F4CF0BF001500A240C6E02501A
:101110000B200D6E0D50056E240E066E0C5061EC0A
:101120000AF0B1EF08F0FD0EADEC0BF0DCEF08F0CB
:10113000FC0EADEC0BF0DCEF08F0FB0EADEC0BF0B1
:10114000DCEF08F0FA0EADEC0BF0DCEF08F0F90E76
:10115000ADEC0BF0DCEF08F0F80EADEC0BF0DCEFD3
:1011600008F00EC001F0026A000E046E060E036E57
:101170003FEC09F00250000AD8B4C1EF08F0DCEFF0
:1011800008F00150000AD8B493EF08F0010AD8B46F
:1011900098EF08F0030AD8B49DEF08F0010AD8B41C
:1011A000A2EF08F0070AD8B4A7EF08F0010AD8B4F4
:1011B000ACEF08F0DCEF08F01200000E066E04BE83
:1011C000E6EF08F0E4EF08F0ECEF08F0036C041E23
:1011D000D8B0042A010E066E02BEF3EF08F0F1EF5C
:1011E00008F0F9EF08F0016C021ED8B0022A010ED7
:1011F000061A000E086E000E076E03500410D8B4D5
:1012000004EF09F006EF09F02EEF09F0010E056E6C
:101210000EEF09F0D89003360436052A04AE13EF1A
:1012200009F015EF09F00AEF09F0D89007360836F3
:101230000350015C04500258D8A021EF09F023EFBD
:1012400009F028EF09F00350015E0450025A0780AC
:10125000D89004320332052E15EF09F00650D8B4A9
:1012600034EF09F036EF09F03AEF09F0076C081E89
:10127000D8B0082A07C001F008C002F01200000E22
:10128000066E02BE48EF09F046EF09F04EEF09F096
:10129000016C021ED8B0022A010E066E04BE55EF84
:1012A00009F053EF09F059EF09F0036C041ED8B0B0
:1012B000042A03500410D8B460EF09F062EF09F07B
:1012C00086EF09F0010E056E6AEF09F0D89003363B
:1012D0000436052A04AE6FEF09F071EF09F066EFEE
:1012E00009F00350015C04500258D8A07AEF09F0CD
:1012F0007CEF09F080EF09F00350015E0450025AC0
:10130000D89004320332052E71EF09F00650D8B49C
:101310008CEF09F08EEF09F092EF09F0016C021EDC
:10132000D8B0022A01C001F002C002F0120081EC24
:101330000BF003EC08F030EC0BF04DEC0BF097ECFD
:101340000BF0000E096E000EEAEC09F0030E086EB9
:10135000100E096E98EC0AF0000E126E0A0E116E55
:1013600011C009F0115074EC08F01150020F096E11
:101370001150020F74EC08F0114A122A12BECAEF83
:1013800009F0125009E1500E115CD8A0CAEF09F023
:10139000CCEF09F0B0EF09F0000E106E010E0F6EE9
:1013A000010EAD6E9EAAD7EF09F0D9EF09F0D2EF8A
:1013B00009F00FC009F0000EEAEC09F0AE50C3ECE2
:1013C0000AF0AECFADFF0F4A102A9E9AD2EF09F075
:1013D00000EF00F00C6E7B0E0E6E000E0D6E0F0E09
:1013E0000C64F5EF09F0F7EF09F0F9EF09F0000EE2
:1013F0000C6E270E0964FFEF09F001EF0AF003EF0E
:101400000AF0000E096E0C50280DF3CF0AF0F4CF4D
:101410000BF009500A26000E0B220D500A240D6E07
:101420000E500B200E6E16EF0AF000F00E50056EF7
:10143000240E066E0D5061EC0AF00009D8B423EFBB
:101440000AF025EF0AF015EF0AF01200000E026E06
:10145000020E046E56EF0AF099689180919691926F
:1014600000F087CF03F0918291860350030B036E47
:10147000030E0318D8B43FEF0AF041EF0AF054EF1F
:101480000AF0022A0C0E6AEC0BF0F90E02644BEF24
:101490000AF04DEF0AF056EF0AF08B948B828F80A2
:1014A000000E046E56EF0AF0010E046E020E0418D0
:1014B000D8B45DEF0AF05FEF0AF02CEF0AF00450A9
:1014C0001200076E000E086E26EC0AF0E806D8A49B
:1014D0006CEF0AF06EEF0AF096EF0AF00C0E6AEC71
:1014E0000BF00750BFEC0BF026EC0AF0E806D8A48E
:1014F0007CEF0AF07EEF0AF096EF0AF00C0E6AEC31
:101500000BF00550BFEC0BF026EC0AF0E806D8A46F
:101510008CEF0AF08EEF0AF096EF0AF00C0E6AECF0
:101520000BF00650CCEC0BF0010E086E08501200C8
:10153000B2EF0AF000F0C00E056E08C0F6FF09C059
:10154000F7FF000EF86E0800F550E00FECEC0AF023
:101550000009D8B4AEEF0AF0B0EF0AF09AEF0AF043
:10156000084A092A08C0F6FF09C0F7FF000EF86E06
:101570000800F5500009D8A4C0EF0AF0C2EF0AF045
:101580009BEF0AF01200086E200E0860CAEF0AF006
:10159000CCEF0AF0CEEF0AF03F0E086E9F0E086403
:1015A000D4EF0AF0D6EF0AF0D8EF0AF03F0E086E3B
:1015B0000850E00F086EDEEF0AF000F0C00E056E76
:1015C0000850ECEC0AF00009D8B4E9EF0AF0EBEFB0
:1015D0000AF0DDEF0AF01200066E000E076E26EC30
:1015E0000AF0E806D8A4F7EF0AF0F9EF0AF011EFD5
:1015F0000BF00C0E6AEC0BF00650BFEC0BF026EC77
:101600000AF0E806D8A407EF0BF009EF0BF011EF92
:101610000BF00C0E6AEC0BF00550CCEC0BF0010E4D
:10162000076E07501200996891809196919200F090
:1016300000F000F087CF01F0918291860150030BFA
:10164000030AD8A426EF0BF028EF0BF02CEF0BF0D9
:10165000010E016E2EEF0BF0000E016E0150120014
:10166000000E056E240E066E000E61EC0AF0000EF0
:101670000A6E000E096EC00E056E000EECEC0AF04C
:10168000094A0A2A800E0A180910D8A44AEF0BF05A
:101690004CEF0BF03BEF0BF01200800E056E240EAA
:1016A000066E000E61EC0AF0800E0A6E000E096EE6
:1016B000C00E056E000EECEC0AF0094A0A2AF80E7C
:1016C0000A180910D8A467EF0BF069EF0BF058EF78
:1016D0000BF01200016E78EF0BF000F000F000F05C
:1016E00000F000F000F000F000F000F000F0010663
:1016F0000150D8A47EEF0BF080EF0BF06DEF0BF0F4
:101700001200A00E0F01266F030E256F080E246F26
:10171000000E236F8B948B928F9092949296929856
:10172000929A949494929890F19E538D1200200E68
:101730000F01216F900E226F000E206F000E1F6FA1
:10174000110E1E6F200EAC6E900EAB6E000E656E0D
:10175000000ED46E110EAF6E1200056E26EC0AF06C
:10176000E806D8A4B6EF0BF0B8EF0BF0BEEF0BF025
:101770000C0E6AEC0BF00550CCEC0BF01200016E75
:1017800001C090FF000E996E91909196919400F097
:1017900000F0918491861200016E01C090FF000E4E
:1017A000996E91809196919400F000F091849186C9
:0817B0001200000197EF09F09F
:020000040020DA
:08000000FFFFFFFFFFFFFFFF00
:020000040030CA
:0E00000015136100308081FFFFC0FFE0FF405C
:00000001FF
