:04000000EBEF0AF028
:101000000048656C6C6F20576F726C640000000EB6
:10101000096E000E906E1F0E916E000E996E000EFE
:101020009A6E919A918C9198040E84EC0AF09188B2
:101030000C0E84EC0AF02EEF08F0092A0C0E84EC5A
:101040000AF0C80E096427EF08F029EF08F02EEF28
:1010500008F08B828F808B94000E096E10EC0AF0E2
:101060000009D8B436EF08F038EF08F01DEF08F0AB
:101070000F0E056E210E066E270EB2EC09F0000E63
:10108000056E220E066E000EB2EC09F0000E056E23
:10109000240E066E000EB2EC09F07B0E056E400EBB
:1010A000066E000EB2EC09F0000E056E410E066EE3
:1010B000280EB2EC09F0800E056E420E066E000E90
:1010C000B2EC09F0000E056E430E066E280EB2EC6F
:1010D00009F0800EB1EC0AF09C0EB1EC0AF0A00E03
:1010E000B1EC0AF0700E056E020EE9EC09F0120088
:1010F000C580C5B07EEF08F080EF08F079EF08F00A
:1011000001C0C9FF9E969EA688EF08F08AEF08F0FE
:1011100083EF08F0C5BC8FEF08F091EF08F08AEF7D
:1011200008F003C0C9FF9E969EA699EF08F09BEFBA
:1011300008F094EF08F0C5BCA0EF08F0A2EF08F0AB
:101140009BEF08F005C0C9FF9E969EA6AAEF08F087
:10115000ACEF08F0A5EF08F0C5BCB1EF08F0B3EFB5
:1011600008F0ACEF08F0C5849EA6B9EF08F0BBEF1D
:1011700008F0B4EF08F09E9612009BEC0AF007EC22
:1011800008F02DEC0AF04AEC0AF0000E096E000E91
:101190003BEC09F0010E086E100E096EFEEC08F033
:1011A000C3EC0AF0000E026EA00E016E000E046E7B
:1011B000080E036E000E066E000E056E78EC08F049
:1011C000000E026EA00E016E000E046E000E036E85
:1011D000000E066E200E056E78EC08F0000E026E12
:1011E000A10E016E67EC0AF001C008F002C009F020
:1011F000FEEC08F0EEEF08F000EF00F021EF09F050
:1012000000F0C00E056E08C0F6FF09C0F7FF000E23
:10121000F86E0F0EF76403D00800F55005D0F6CF36
:10122000E9FFF7CFEAFFEF50E00FE9EC09F0000922
:10123000D8B41DEF09F01FEF09F000EF09F0084ADC
:10124000092A08C0F6FF09C0F7FF000EF86E0F0E5E
:10125000F76403D00800F55005D0F6CFE9FFF7CFCB
:10126000EAFFEF500009D8A438EF09F03AEF09F08F
:1012700001EF09F012000C6E7B0E0E6E000E0D6E6B
:101280000F0E0C6446EF09F048EF09F04AEF09F041
:10129000000E0C6E270E096450EF09F052EF09F0B2
:1012A00054EF09F0000E096E0C50280DF3CF0AF030
:1012B000F4CF0BF009500A26000E0B220D500A2421
:1012C0000D6E0E500B200E6E67EF09F000F00E5001
:1012D000056E240E066E0D50B2EC09F00009D8B46C
:1012E00074EF09F076EF09F066EF09F01200000ED6
:1012F000026E020E046EA7EF09F099689180919634
:10130000919200F087CF03F0918291860350030BF6
:10131000036E030E0318D8B490EF09F092EF09F0B2
:10132000A5EF09F0022A0C0E84EC0AF0F90E026413
:101330009CEF09F09EEF09F0A7EF09F08B948B82E8
:101340008F80000E046EA7EF09F0010E046E020EEE
:101350000418D8B4AEEF09F0B0EF09F07DEF09F052
:1013600004501200076E000E086E77EC09F0E806D4
:10137000D8A4BDEF09F0BFEF09F0E7EF09F00C0EBC
:1013800084EC0AF00750D1EC0AF077EC09F0E8069B
:10139000D8A4CDEF09F0CFEF09F0E7EF09F00C0E7C
:1013A00084EC0AF00550D1EC0AF077EC09F0E8067D
:1013B000D8A4DDEF09F0DFEF09F0E7EF09F00C0E3C
:1013C00084EC0AF00650DEEC0AF0010E086E0850BC
:1013D0001200066E000E076E77EC09F0E806D8A43E
:1013E000F4EF09F0F6EF09F00EEF0AF00C0E84ECC2
:1013F0000AF00650D1EC0AF077EC09F0E806D8A420
:1014000004EF0AF006EF0AF00EEF0AF00C0E84EC7F
:101410000AF00550DEEC0AF0010E076E07501200CC
:10142000996891809196919200F000F000F087CF3A
:1014300001F0918291860150030B030AD8A423EF97
:101440000AF025EF0AF029EF0AF0010E016E2BEFEA
:101450000AF0000E016E01501200000E056E240EFF
:10146000066E000EB2EC09F0000E0A6E000E096E58
:10147000C00E056E000EE9EC09F0094A0A2A800E3A
:101480000A180910D8A447EF0AF049EF0AF038EF1C
:101490000AF01200800E056E240E066E000EB2ECED
:1014A00009F0800E0A6E000E096EC00E056E000E69
:1014B000E9EC09F0094A0A2AF80E0A180910D8A41A
:1014C00064EF0AF066EF0AF055EF0AF01200C580EB
:1014D000C5B06DEF0AF06FEF0AF068EF0AF001C0D7
:1014E000C9FF9E969EA677EF0AF079EF0AF072EF99
:1014F0000AF0C5BC7EEF0AF080EF0AF079EF0AF03F
:10150000C9CF01F0026A1200016E92EF0AF000F0FA
:1015100000F000F000F000F000F000F000F000F04B
:1015200000F001060150D8A498EF0AF09AEF0AF0F3
:1015300087EF0AF01200A00E0F01266F030E256F31
:10154000080E246F000E236F8B948B928F909294D1
:1015500092969298929A949494929890F19E538D28
:101560001200056E77EC09F0E806D8A4BAEF0AF08D
:10157000BCEF0AF0C2EF0AF00C0E84EC0AF0055042
:10158000DEEC0AF01200000EC76E000EC66EC68AB0
:10159000C650F00B0809C66E000EC56E770EC86EF9
:1015A0001200016E01C090FF000E996E919091960D
:1015B000919400F000F0918491861200016E01C0B8
:1015C00090FF000E996E91809196919400F000F03A
:1015D000918491861200116A106A0F6A0001BDEFB2
:0215E00008F011
:020000040020DA
:08000000FFFFFFFFFFFFFFFF00
:020000040030CA
:0E00000015136100308081FFFFC0FFE0FF405C
:00000001FF
