:0400000065EF0BF0AD
:101000000048656C6C6F20576F726C640000000EB6
:10101000096E000E906E1F0E916E000E996E000EFE
:101020009A6E919A918C9198040EFEEC0AF0918838
:101030000C0EFEEC0AF02EEF08F0092A0C0EFEEC66
:101040000AF0C80E096427EF08F029EF08F02EEF28
:1010500008F08B828F808B94000E096EA7EC0AF04B
:101060000009D8B436EF08F038EF08F01DEF08F0AB
:101070000F0E056E210E066E270ED2EC09F0000E43
:10108000056E220E066E000ED2EC09F0000E056E03
:10109000240E066E000ED2EC09F07B0E056E400E9B
:1010A000066E000ED2EC09F0000E056E410E066EC3
:1010B000280ED2EC09F0800E056E420E066E000E70
:1010C000D2EC09F0000E056E430E066E280ED2EC2F
:1010D00009F0800E2BEC0BF09C0E2BEC0BF0A00E0D
:1010E0002BEC0BF0700E056E020E5DEC0AF0120098
:1010F000036EC580C5B07FEF08F081EF08F07AEF8E
:1011000008F00304C96E9E969EA689EF08F08BEF47
:1011100008F084EF08F0C5BC90EF08F092EF08F0FB
:101120008BEF08F001C0C9FF9E969EA69AEF08F0CB
:101130009CEF08F095EF08F0C5BCA1EF08F0A3EF15
:1011400008F09CEF08F0C580C5B0A9EF08F0ABEF40
:1011500008F0A4EF08F00304C96E9E969EA6B3EFB4
:1011600008F0B5EF08F0AEEF08F0C5BCBAEF08F034
:10117000BCEF08F0B5EF08F0C5849EA6C2EF08F0FA
:10118000C4EF08F0BDEF08F09E96C9CF01F0026AE7
:10119000120015EC0BF007EC08F0C4EC0AF0E1ECDF
:1011A0000AF0000E096E000E5BEC09F0010E086EED
:1011B000100E096E09EC0AF03DEC0BF0080E016E02
:1011C000000E026EA00E15EC09F0010E016E000E6D
:1011D000026EA00E15EC09F0020E016E000E026EFA
:1011E000A00E15EC09F0030E016E000E026EA00EAB
:1011F00015EC09F0000E016E200E026EA00E15EC2B
:1012000009F0000E016EA10E78EC08F0015034ECEC
:101210000AF0640E84EC0AF0000E096E000E5BEC1E
:1012200009F001EF09F000EF00F0036EC580C5B0D2
:101230001CEF09F01EEF09F017EF09F003C0C9FF1A
:101240009E969EA626EF09F028EF09F021EF09F0FF
:10125000C5BC2DEF09F02FEF09F028EF09F001C010
:10126000C9FF9E969EA637EF09F039EF09F032EFDD
:1012700009F0C5BC3EEF09F040EF09F039EF09F085
:1012800002C0C9FFC5BC47EF09F049EF09F042EFC2
:1012900009F09EA64EEF09F050EF09F049EF09F072
:1012A0009E96C5849EA657EF09F059EF09F052EFBC
:1012B00009F09E9612000C6E7B0E0E6E000E0D6EE7
:1012C0000F0E0C6466EF09F068EF09F06AEF09F0A1
:1012D000000E0C6E270E096470EF09F072EF09F032
:1012E00074EF09F0000E096E0C50280DF3CF0AF0D0
:1012F000F4CF0BF009500A26000E0B220D500A24E1
:101300000D6E0E500B200E6E87EF09F000F00E50A0
:10131000056E240E066E0D50D2EC09F00009D8B40B
:1013200094EF09F096EF09F086EF09F01200000E35
:10133000026E020E046EC7EF09F0996891809196D3
:10134000919200F087CF03F0918291860350030BB6
:10135000036E030E0318D8B4B0EF09F0B2EF09F032
:10136000C5EF09F0022A0C0EFEEC0AF0F90E026439
:10137000BCEF09F0BEEF09F0C7EF09F08B948B8248
:101380008F80000E046EC7EF09F0010E046E020E8E
:101390000418D8B4CEEF09F0D0EF09F09DEF09F0B2
:1013A00004501200076E000E086E97EC09F0E80674
:1013B000D8A4DDEF09F0DFEF09F007EF0AF00C0E1B
:1013C000FEEC0AF007504BEC0BF097EC09F0E80646
:1013D000D8A4EDEF09F0EFEF09F007EF0AF00C0EDB
:1013E000FEEC0AF005504BEC0BF097EC09F0E80628
:1013F000D8A4FDEF09F0FFEF09F007EF0AF00C0E9B
:10140000FEEC0AF0065058EC0BF0010E086E085086
:10141000120023EF0AF000F0C00E056E08C0F6FFC0
:1014200009C0F7FF000EF86E0800F550E00F5DEC04
:101430000AF00009D8B41FEF0AF021EF0AF00BEF11
:101440000AF0084A092A08C0F6FF09C0F7FF000E93
:10145000F86E0800F5500009D8A431EF0AF033EF18
:101460000AF00CEF0AF01200086E200E08603BEF45
:101470000AF03DEF0AF03FEF0AF03F0E086E9F0EB4
:10148000086445EF0AF047EF0AF049EF0AF03F0E13
:10149000086E0850E00F086E4FEF0AF000F0C00E23
:1014A000056E08505DEC0AF00009D8B45AEF0AF056
:1014B0005CEF0AF04EEF0AF01200066E000E076EA7
:1014C00097EC09F0E806D8A468EF0AF06AEF0AF092
:1014D00082EF0AF00C0EFEEC0AF006504BEC0BF01B
:1014E00097EC09F0E806D8A478EF0AF07AEF0AF052
:1014F00082EF0AF00C0EFEEC0AF0055058EC0BF0EF
:10150000010E076E07501200066E000E056E000EEB
:10151000046E94EF0AF0040E016E960EE82EFED7CC
:10152000012EFCD7044A052A0650016E026A0150BA
:10153000045C0550800A036E0250800A0358D8A04C
:10154000A4EF0AF0A6EF0AF08BEF0AF012009968F8
:1015500091809196919200F000F000F087CF01F019
:10156000918291860150030B030AD8A4BAEF0AF0C6
:10157000BCEF0AF0C0EF0AF0010E016EC2EF0AF0F4
:10158000000E016E01501200000E056E240E066E54
:10159000000ED2EC09F0000E0A6E000E096EC00EAD
:1015A000056E000E5DEC0AF0094A0A2A800E0A1840
:1015B0000910D8A4DEEF0AF0E0EF0AF0CFEF0AF04E
:1015C0001200800E056E240E066E000ED2EC09F09D
:1015D000800E0A6E000E096EC00E056E000E5DECE8
:1015E0000AF0094A0A2AF80E0A180910D8A4FBEFD3
:1015F0000AF0FDEF0AF0ECEF0AF01200016E0CEFBA
:101600000BF000F000F000F000F000F000F000F04F
:1016100000F000F000F001060150D8A412EF0BF02A
:1016200014EF0BF001EF0BF01200A00E0F01266F6C
:10163000030E256F080E246F000E236F8B948B9280
:101640008F90929492969298929A94949492989061
:10165000F19E538D1200056E97EC09F0E806D8A4B0
:1016600034EF0BF036EF0BF03CEF0BF00C0EFEEC12
:101670000AF0055058EC0BF01200000EC76E000E79
:10168000C66EC68AC650F00B0809C66E000EC56E3F
:10169000770EC86E1200016E01C090FF000E996EA9
:1016A00091909196919400F000F0918491861200AF
:1016B000016E01C090FF000E996E918091969194F9
:1016C00000F000F0918491861200116A106A0F6A8E
:0616D0000001C9EF08F063
:020000040020DA
:08000000FFFFFFFFFFFFFFFF00
:020000040030CA
:0E00000015136100308081FFFFC0FFE0FF405C
:00000001FF
