:04000000D7EFFEF048
:020000040001F9
:10FDA8000E1E0F1E12000D6A0C6A0B6A0A6A096A97
:10FDB800086A0001BEEFFFF087A802D08C8E01D040
:10FDC8008C9E87AA02D08C8C01D08C9C87AC02D0E8
:10FDD8008C8A01D08C9A87AE02D08C8801D08C98FE
:10FDE8008CCF0CF00C380F0B0D6E1200000E066E47
:10FDF800000E056E09D0240E026EE70EE82EFED71F
:10FE0800022EFCD7054A062A0150026E036A0650E4
:10FE1800800A046E0250055C0350800A0458D8A07A
:10FE280001D001D0E8D700D01200A00E0F010F01B9
:10FE3800266F000E0F010F01256F000E0F010F0135
:10FE4800246F000E0F010F01236F000E956E996845
:10FE5800000E0F6E010E0E6E000E096E000E086E7B
:10FE6800000E116E060E106E010E8C6E016E000EE5
:10FE78000C6E0150000E0B6E000E0A6E120011D0AF
:10FE8800000E116E060E106E000E116E0C0E106E26
:10FE9800000E116E180E106E000E116E300E106EE0
:10FEA80017D00AC001F00BC002F00250000AD8B403
:10FEB80001D00ED00150000AD8B4E2D7010AD8B454
:10FEC800E3D7030AD8B4E4D7010AD8B4E5D700D0F9
:10FED8000B50800A800F030ED8B40A5CD8B001D04A
:10FEE80001D003D00A4A0B2A05D0000E0B6E000E73
:10FEF8000A6E00D012000850080A0910D8A401D0D0
:10FF080001D023D0000E096E000E086E0C6601D0D9
:10FF180001D00DD00E040F10D8A401D001D003D009
:10FF2800010E8C6E12D0800E8C6E0FD00ED00E0487
:10FF38000F10D8A401D001D003D00CC08CFF05D07D
:10FF48000DC08CFF02D001D000D010C001F0FAEC37
:10FF5800FEF00E040F10D8A401D001D004D08C50AC
:10FF68008C248C6E04D0D8908C308C6E00D0084ACB
:10FF7800092A120019ECFFF000D086B801D001D090
:10FF880019D086B601D001D015D004D003D0E0EC4A
:10FF9800FEF000D086A601D002D0010E01D0000EDE
:10FFA800076E86A801D002D0010E01D0000E0714FA
:10FFB800EEE100D086B601D001D00AD001D000D041
:10FFC80086A601D001D0FCD700D043ECFFF000D0CA
:10FFD80086B801D001D00AD001D000D086A801D0BF
:10FFE80001D0FCD700D0D4ECFEF000D07FECFFF0BD
:08FFF800C4D7C3D700EF00F0ED
:020000040020DA
:08000000FFFFFFFFFFFFFFFF00
:020000040030CA
:0E0000001D036100018B81FFFFC0FFE0FF4088
:00000001FF
