:0400000072EF0CF09F
:101000000020202020202020202020202020202000
:1010100020202020202020202020202020202020D0
:1010200020202020202020202020202020202020C0
:1010300020202020202020202020202020202020B0
:1010400020202020202020202020202020202020A0
:101050002020202020202020202020202020202090
:101060002020202020202020202020202020202080
:10107000202020202020202000414C41524D45209E
:101080002120285061737361676520617520646554
:101090007373757320646520313236290048656C9E
:1010A0006C6F000041EC0CF085EC09F0BEEC0CF02C
:1010B000C9EC0CF096EC0CF007EC0CF024EC0CF006
:1010C000000E096E000EEAEC0AF09D0E086E100E7E
:1010D000096E98EC0BF0000E016E200E026EA00E51
:1010E000A3EC0AF0010E016E030E026E130E036EE6
:1010F000000E046EA00EF4EC08F0000E096E000E57
:10110000EAEC0AF09D0E086E100E096E98EC0BF0DA
:10111000010E016E030E026E130E036E000E046EBE
:10112000A00EF4EC08F0000E096E020EEAEC0AF0D4
:1011300015505BEC0AF0020E096E020EEAEC0AF0A2
:1011400014505BEC0AF0040E096E020EEAEC0AF091
:1011500013505BEC0AF083B6B0EF08F0B2EF08F082
:10116000CEEF08F0010E016E000E026EA00EA3EC91
:101170000AF0020E016E000E026EA00EA3EC0AF041
:10118000030E016E000E026EA00EA3EC0AF083A601
:10119000CCEF08F0CEEF08F0C7EF08F0020E016EBA
:1011A000A00EF6EC09F0126E1250D8B4DAEF08F087
:1011B000DCEF08F0EAEF08F0000E096E030EEAEC2F
:1011C0000AF0790E086E100E096E98EC0BF0898A01
:1011D0007DEF08F0010E086E100E096E98EC0BF012
:1011E0007DEF08F000EF00F0056EC580C5B0FBEFA5
:1011F00008F0FDEF08F0F6EF08F005C0C9FF9E9675
:101200009EA605EF09F007EF09F000EF09F0C5BC55
:101210000CEF09F00EEF09F007EF09F001C0C9FF6C
:101220009E969EA616EF09F018EF09F011EF09F04F
:10123000C5BC1DEF09F01FEF09F018EF09F0C580DC
:10124000C5B025EF09F027EF09F020EF09F00528D8
:10125000C96E9E969EA62FEF09F031EF09F02AEF96
:1012600009F0C5BC36EF09F038EF09F031EF09F0AD
:101270009E96C5869EA63FEF09F041EF09F03AEF32
:1012800009F003C0D9FF04C0DAFFC9CFDFFF9E9683
:10129000010E066E68EF09F0C59AC5889EA653EF49
:1012A00009F055EF09F04EEF09F0C5869E969EA60F
:1012B0005CEF09F05EEF09F057EF09F006500324E8
:1012C000D96E000E0420DA6EC9CFDFFF9E96062A83
:1012D0000250065CD8A06FEF09F071EF09F04CEFF7
:1012E00009F0C58AC5889EA678EF09F07AEF09F063
:1012F00073EF09F09E96C5849EA681EF09F083EFF7
:1013000009F07CEF09F09E961200000E096E000EA7
:10131000906E1F0E916E000E996E000E9A6E919A4D
:10132000918C9198040E5BEC0CF091880C0E5BECA8
:101330000CF0ACEF09F0092A0C0E5BEC0CF0C80EB7
:101340000964A5EF09F0A7EF09F0ACEF09F08B8273
:101350008F808B94000E096EEAEC0BF00009D8B474
:10136000B4EF09F0B6EF09F09BEF09F00F0E056E30
:10137000210E066E270E61EC0BF0000E056E220E9C
:10138000066E000E61EC0BF0000E056E240E066E6C
:10139000000E61EC0BF07B0E056E400E066E000E2B
:1013A00061EC0BF0000E056E410E066E280E61EC2E
:1013B0000BF0800E056E420E066E000E61EC0BF017
:1013C000000E056E430E066E280E61EC0BF0800ECB
:1013D00084EC0CF09C0E84EC0CF0A00E84EC0CF071
:1013E000700E056E020EC3EC0BF01200036EC5808A
:1013F000C5B0FDEF09F0FFEF09F0F8EF09F003C009
:10140000C9FF9E969EA607EF0AF009EF0AF002EFC9
:101410000AF0C5BC0EEF0AF010EF0AF009EF0AF06F
:1014200001C0C9FF9E969EA618EF0AF01AEF0AF0B7
:1014300013EF0AF0C5BC1FEF0AF021EF0AF01AEF14
:101440000AF0C580C5B027EF0AF029EF0AF022EFB5
:101450000AF00328C96E9E969EA631EF0AF033EF7C
:101460000AF02CEF0AF0C5BC38EF0AF03AEF0AF0A8
:1014700033EF0AF09E96C5869EA641EF0AF043EF31
:101480000AF03CEF0AF0C9CF02F09E96C58AC588E3
:101490009EA64DEF0AF04FEF0AF048EF0AF09E9635
:1014A000C5849EA656EF0AF058EF0AF051EF0AF0F5
:1014B0009E9602501200086E08380F0B096E090E36
:1014C000096465EF0AF067EF0AF06CEF0AF0095063
:1014D000170F096E72EF0AF00950100F096E72EFC4
:1014E0000AF000F0C00E056E0950C3EC0BF00009C5
:1014F000D8B47DEF0AF07FEF0AF071EF0AF00850E0
:101500000F0B096E090E096488EF0AF08AEF0AF0E2
:101510008FEF0AF00950170F096E95EF0AF0095086
:10152000100F096E95EF0AF000F0C00E056E09501D
:10153000C3EC0BF00009D8B4A0EF0AF0A2EF0AF058
:1015400094EF0AF01200036EC580C5B0AAEF0AF04E
:10155000ACEF0AF0A5EF0AF003C0C9FF9E969EA665
:10156000B4EF0AF0B6EF0AF0AFEF0AF0C5BCBBEF7C
:101570000AF0BDEF0AF0B6EF0AF001C0C9FF9E966F
:101580009EA6C5EF0AF0C7EF0AF0C0EF0AF0C5BC8F
:10159000CCEF0AF0CEEF0AF0C7EF0AF002C0C9FFA5
:1015A0009E969EA6D6EF0AF0D8EF0AF0D1EF0AF089
:1015B000C5BCDDEF0AF0DFEF0AF0D8EF0AF09E9627
:1015C000C5849EA6E6EF0AF0E8EF0AF0E1EF0AF024
:1015D0009E9612000C6E7B0E0E6E000E0D6E0F0EA0
:1015E0000C64F5EF0AF0F7EF0AF0F9EF0AF0000EDD
:1015F0000C6E270E0964FFEF0AF001EF0BF003EF0A
:101600000BF0000E096E0C50280DF3CF0AF0F4CF4A
:101610000BF009500A26000E0B220D500A240D6E05
:101620000E500B200E6E16EF0BF000F00E50056EF4
:10163000240E066E0D5061EC0BF00009D8B423EFB8
:101640000BF025EF0BF015EF0BF01200000E026E01
:10165000020E046E56EF0BF099689180919691926C
:1016600000F087CF03F0918291860350030B036E45
:10167000030E0318D8B43FEF0BF041EF0BF054EF1B
:101680000BF0022A0C0E5BEC0CF0F90E02644BEF2F
:101690000BF04DEF0BF056EF0BF08B948B828F809D
:1016A000000E046E56EF0BF0010E046E020E0418CD
:1016B000D8B45DEF0BF05FEF0BF02CEF0BF00450A4
:1016C0001200076E000E086E26EC0BF0E806D8A498
:1016D0006CEF0BF06EEF0BF096EF0BF00C0E5BEC7B
:1016E0000CF00750A4EC0CF026EC0BF0E806D8A4A4
:1016F0007CEF0BF07EEF0BF096EF0BF00C0E5BEC3B
:101700000CF00550A4EC0CF026EC0BF0E806D8A485
:101710008CEF0BF08EEF0BF096EF0BF00C0E5BECFA
:101720000CF00650B1EC0CF0010E086E08501200DF
:10173000B2EF0BF000F0C00E056E08C0F6FF09C056
:10174000F7FF000EF86E0800F550E00FC3EC0BF049
:101750000009D8B4AEEF0BF0B0EF0BF09AEF0BF03E
:10176000084A092A08C0F6FF09C0F7FF000EF86E04
:101770000800F5500009D8A4C0EF0BF0C2EF0BF041
:101780009BEF0BF01200066E000E076E26EC0BF0BE
:10179000E806D8A4CEEF0BF0D0EF0BF0E8EF0BF09B
:1017A0000C0E5BEC0CF00650A4EC0CF026EC0BF0ED
:1017B000E806D8A4DEEF0BF0E0EF0BF0E8EF0BF05B
:1017C0000C0E5BEC0CF00550B1EC0CF0010E076E4A
:1017D00007501200996891809196919200F000F064
:1017E00000F087CF01F0918291860150030B030A2C
:1017F000D8A4FDEF0BF0FFEF0BF003EF0CF0010EA0
:10180000016E05EF0CF0000E016E01501200000E8B
:10181000056E240E066E000E61EC0BF0000E0A6ED3
:10182000000E096EC00E056E000EC3EC0BF0094AE7
:101830000A2A800E0A180910D8A421EF0CF023EF11
:101840000CF012EF0CF01200800E056E240E066EE6
:10185000000E61EC0BF0800E0A6E000E096EC00ED9
:10186000056E000EC3EC0BF0094A0A2AF80E0A189E
:101870000910D8A43EEF0CF040EF0CF02FEF0CF065
:101880001200A00E0F01266F030E256F080E246FA5
:10189000000E236F8B948B928F90929492969298D5
:1018A000929A949494929890948694889586899A22
:1018B000F19E538D1200016E69EF0CF000F000F004
:1018C00000F000F000F000F000F000F000F000F098
:1018D00001060150D8A46FEF0CF071EF0CF05EEF31
:1018E0000CF01200940EF66E190EF76E000EF86EE4
:1018F0000900F5CF16F000EE0FF0070EEE6AE806CD
:10190000FDE1000152EF08F0056E26EC0BF0E80651
:10191000D8A48DEF0CF08FEF0CF095EF0CF00C0EBF
:101920005BEC0CF00550B1EC0CF01200000EC76E31
:10193000000EC66EC650F00B0809C66E000EC56ECE
:10194000770EC86EC68A1200016E01C090FF000EAD
:10195000996E91909196919400F000F09184918607
:101960001200016E01C090FF000E996E9180919659
:10197000919400F000F0918491861200000E686E40
:10198000310E676E9598959C979E8E8EA19A678A68
:0519900012001200012D
:020000040020DA
:08000000FFFFFFFFFFFFFFFF00
:020000040030CA
:0E00000015136100308081FFFFC0FFE0FF405C
:00000001FF
