:040000004AEF00F0D3
:10000800FACF04F0FBCF05F0E9CF06F0EACF07F00E
:10001800E1CF08F0E2CF09F0D9CF0AF0DACF0BF040
:10002800F3CF0CF0F4CF0DF0F6CF0EF0F7CF0FF0C2
:10003800F8CF10F0F5CF11F0000EF66E000EF76E47
:10004800180EF86E0800F5CF02F0ECEC00F0F29212
:1000580000D011C0F5FF10C0F8FF0FC0F7FF0EC0A9
:10006800F6FF0DC0F4FF0CC0F3FF0BC0DAFF0AC0A7
:10007800D9FF09C0E2FF08C0E1FF07C0EAFF06C0D8
:10008800E9FF05C0FBFF04C0FAFF110035EF02F0DD
:10009800240E126EE70EE82EFED7122EFCD7000EA5
:1000A800F66E000EF76E1A0EF86E380EF56E0C002E
:1000B800120E126EF30EE82EFED7122EFCD7000E8B
:1000C800F66E000EF76E1A0EF86E380EF56E0C000E
:1000D800040E126E950EE82EFED7122EFCD700D015
:1000E800000EF66E000EF76E1A0EF86E380EF56EEC
:1000F8000C00040E126E950EE82EFED7122EFCD7B9
:1001080000D0000EF66E000EF76E1A0EF86E380E5E
:10011800F56E0C00040E126E950EE82EFED7122E08
:10012800FCD700D0000EF66E000EF76E1A0EF86EB1
:10013800140EF56E0C00040E126E950EE82EFED706
:10014800122EFCD700D0000EF66E000EF76E1A0EB7
:10015800F86E0E0EF56E0C00040E126E950EE82E5B
:10016800FED7122EFCD700D0000EF66E000EF76EEA
:100178001A0EF86E060EF56E0C00040E126E950E31
:10018800E82EFED7122EFCD700D0000EF66E000E19
:10019800F76E1A0EF86E020EF56E0C00080E126E4F
:1001A8002C0EE82EFED7122EFCD700D0000EF66ECD
:1001B800000EF76E1A0EF86E010EF56E0C00080EA2
:1001C800126E2C0EE82EFED7122EFCD700D012008D
:1001D80002500F0B026E73D086D085D0000EF66EDB
:1001E800000EF76E1A0EF86E100EF56E0C00080E63
:1001F800036E2C0EE82EFED7032EFCD700D024EC7D
:1002080002F071D0000EF66E000EF76E1A0EF86E40
:10021800140EF56E0C00080E036E2C0EE82EFED799
:10022800032EFCD700D024EC02F05DD0000EF66E51
:10023800000EF76E1A0EF86E010EF56E0C00080E21
:10024800036E2C0EE82EFED7032EFCD700D024EC2C
:1002580002F0000EF66E000EF76E1A0EF86E020E21
:10026800F56E0C00080E036E2C0EE82EFED7032E3A
:10027800FCD700D024EC02F036D0000EF66E000E4B
:10028800F76E1A0EF86EC00EF56E0C00080E036EAF
:100298002C0EE82EFED7032EFCD700D024EC02F05B
:1002A80022D0020EF66E000EF76E1A0EF86E02508D
:1002B800300FF56E0C0024EC02F015D014D002506B
:1002C8000A0AD8B410D0010AD8B40DD0070AD8B495
:1002D80085D7010AD8B496D7030AD8B4A7D7010A94
:1002E800D8B4CBD7DED71200A00E0F010F01266FAE
:1002F8000F010F01269FD09EF29CF28EF288F29297
:10030800000E0F010F01256F000E0F010F01246F62
:10031800000E0F010F01236F000E956E9968000EF5
:10032800986E988494680F010F01218B0F010F01BB
:10033800219D0F010F0121990F010F012185000E49
:100348000F010F01206F110E0F010F011E6F000E1C
:100358000F010F011F6F1200000E176E000E166EB0
:100368000AD0040E136E950EE82EFED7132EFCD776
:1003780000D0164A172A1250136E146A1750800AB2
:10038800156E1350165C1450800A1558D8A001D069
:1003980001D0E7D700D01200000EF66E000EF76EFF
:1003A8001A0EF86E010EF56E0C0013EC02F0020E38
:1003B800F66E000EF76E1A0EF86E13C0F5FF0C00FD
:1003C80013EC02F0120078EC01F03BEC02F04CEC7C
:1003D80000F000D0FDEC01F0136ED0EC01F0186EC7
:1003E800640E126E1850B0EC01F0F4D7F3D74AEF50
:1003F80000F00F010F01228F0F010F01228D0F0155
:100408000F01228900D00F010F0122B301D001D0C2
:10041800FAD700D00F010F011D5100D0120001D0F2
:1004280000D0000EF66E000EF76E1A0EF86E080079
:10043800F5CF12F012BE01D001D0F3D700D01200D0
:1004480001D000D0000EF66E000EF76E1A0EF86E90
:100458000800F5CF01F001BE01D001D0F3D700D0DC
:1004680012001B6A1A6A196A0001E7EF01F0000E10
:0A047800F26EF28CF28EF288120090
:020000040020DA
:08000000FFFFFFFFFFFFFFFF00
:020000040030CA
:0E0000001D036100018B81FFFFC0FFE0FF4088
:00000001FF
