:0400000012EFFFF00C
:020000040001F9
:10FE2400026A016A000122EFFFF0D59CD59AD596AB
:10FE3400D580D582D584D598F28AF294F28E1200B8
:10FE44003EECFFF060ECFFF02DECFFF017ECFFF060
:10FE54008B9400EF00F001D000D0000EF66E000E7F
:10FE6400F76E1A0EF86E0800F5CF03F003BE01D04A
:10FE740001D0F3D700D01200A00E0F010F01266F9E
:10FE84000F010F01269FD09EF29CF28EF288F2920F
:10FE9400000E0F010F01256F000E0F010F01246FDB
:10FEA400000E0F010F01236F000E956E9968000E6E
:10FEB400986E94689368988494941200240E036E48
:10FEC400E70EE82EFED7032EFCD7000EF66E000ECA
:10FED400F76E1A0EF86E380EF56E0C00120E036EE5
:10FEE400F30EE82EFED7032EFCD7000EF66E000E9E
:10FEF400F76E1A0EF86E380EF56E0C00040E036ED3
:10FF0400950EE82EFED7032EFCD700D0000EF66E19
:10FF1400000EF76E1A0EF86E380EF56E0C00040E15
:10FF2400036E950EE82EFED7032EFCD700D0000EEC
:10FF3400F66E000EF76E1A0EF86E380EF56E0C00A3
:10FF4400040E036E950EE82EFED7032EFCD700D0C8
:10FF5400000EF66E000EF76E1A0EF86E140EF56EA5
:10FF64000C00040E036E950EE82EFED7032EFCD76C
:10FF740000D0000EF66E000EF76E1A0EF86E0E0E1E
:10FF8400F56E0C00040E036E950EE82EFED7032EBC
:10FF9400FCD700D0000EF66E000EF76E1A0EF86E47
:10FFA400060EF56E0C00040E036E950EE82EFED7B9
:10FFB400032EFCD700D0000EF66E000EF76E1A0E5C
:10FFC400F86E020EF56E0C00080E036E2C0EE82E71
:10FFD400FED7032EFCD700D0000EF66E000EF76E8F
:10FFE4001A0EF86E010EF56E0C00080E036E2C0E40
:0CFFF400E82EFED7032EFCD700D0120030
:020000040020DA
:08000000FFFFFFFFFFFFFFFF00
:020000040030CA
:0E0000001D036100018B81FFFFC0FFE0FF4088
:00000001FF
