:04000000C2EFFDF05E
:020000040001F9
:10FB6E00D59E1200D58E1200000ED66E1200D6CF84
:10FB7E0001F0026A12001C6A1B6A000105EFFEF01A
:10FB8E00D59CD59AD596D580D582D584D598F28A2E
:10FB9E00F294F28E120001D000D0000EF66E000E1E
:10FBAE00F76E1A0EF86E0800F5CF01F001BE01D007
:10FBBE0001D0F3D700D01200A00E0F010F01266F57
:10FBCE000F010F01269FD09EF29CF28EF288F292C8
:10FBDE00000E0F010F01256F000E0F010F01246F94
:10FBEE00000E0F010F01236F000E956E9968000E27
:10FBFE00986E94689368988494941200E3ECFDF0E8
:10FC0E0060ECFFF0D2ECFDF0C7ECFDF08B8400D081
:10FC1E008130010B186E1850196E1A6A06D0813099
:10FC2E00010B186E1850196E1A6A1A501910D8B4A2
:10FC3E0001D001D0F4D700D0B9ECFDF08130010B2A
:10FC4E00186E1850196E1A6A06D08130010B186E94
:10FC5E001850196E1A6A19041A10D8B401D001D0AE
:10FC6E00F4D700D0B7ECFDF0BEECFDF001C00AF009
:10FC7E0002C00BF0FBECFEF0BBECFDF0C9D7C8D711
:10FC8E0000EF00F0056E000E076E055002AE01D0BB
:10FC9E0001D009D0016C021ED8B0022A056E010EE9
:10FCAE00076E055000D004AE01D001D005D0036C14
:10FCBE00041ED8B0042A00D004500310D8B401D0CA
:10FCCE0001D024D0056E010E066E055005D0D890D9
:10FCDE0003360436062A00D004AE01D001D0F7D781
:10FCEE0001D000D00350015C04500258D8A001D0BE
:10FCFE0001D005D00350015E0450025A00D0D890B6
:10FD0E0004320332062EEED701D000D00750D8B4FD
:10FD1E0001D001D005D0016C021ED8B0022A00D04D
:10FD2E0001C001F002C002F000D01200056E000EFC
:10FD3E00076E055004AE01D001D009D0036C041E2D
:10FD4E00D8B0042A056E010E076E055000D002AE23
:10FD5E0001D001D007D0016C021ED8B0022A010ECC
:10FD6E00071A00D0000E096E000E086E0450031024
:10FD7E00D8B401D001D028D0056E010E066E055004
:10FD8E0005D0D89003360436062A00D004AE01D032
:10FD9E0001D0F7D701D000D0D890083609360350DD
:10FDAE00015C04500258D8A001D001D006D00350F7
:10FDBE00015E0450025A088000D0D89004320332FB
:10FDCE00062EEAD701D000D00750D8B401D001D00A
:10FDDE0005D0086C091ED8B0092A00D008C001F061
:10FDEE0009C002F000D01200000E176E000E166E43
:10FDFE00000EF66E000EF76E1A0EF86E010EF56E10
:10FE0E000C00D2ECFDF024D00C0E1624D96E000E90
:10FE1E001720DA6E0AC001F00BC002F0000E046E5D
:10FE2E000A0E036E49ECFEF00150300FDF6E0AC071
:10FE3E0001F00BC002F0000E046E0A0E036E9DEC74
:10FE4E00FEF001C00AF002C00BF0164A172A00D0CD
:10FE5E000B50800A800F010ED8B40A5CD8B001D0C6
:10FE6E0001D0D2D700D0FF0E1624166EFF0E17202B
:10FE7E00176E17AE01D001D002D01AD019D0020ED3
:10FE8E00F66E000EF76E1A0EF86E0C0E1624D96E64
:10FE9E00000E1720DA6EDF50F56E0C00D2ECFDF07E
:10FEAE001606D8A0170617AE01D001D0E8D700D09D
:10FEBE001200240E016EE70EE82EFED7012EFCD79F
:10FECE00000EF66E000EF76E1A0EF86E380EF56E08
:10FEDE000C00120E016EF30EE82EFED7012EFCD78B
:10FEEE00000EF66E000EF76E1A0EF86E380EF56EE8
:10FEFE000C00040E016E950EE82EFED7012EFCD7D7
:10FF0E0000D0000EF66E000EF76E1A0EF86E380E5A
:10FF1E00F56E0C00040E016E950EE82EFED7012E26
:10FF2E00FCD700D0000EF66E000EF76E1A0EF86EAD
:10FF3E00380EF56E0C00040E016E950EE82EFED7EF
:10FF4E00012EFCD700D0000EF66E000EF76E1A0EC4
:10FF5E00F86E140EF56E0C00040E016E950EE82E62
:10FF6E00FED7012EFCD700D0000EF66E000EF76EF7
:10FF7E001A0EF86E0E0EF56E0C00040E016E950E36
:10FF8E00E82EFED7012EFCD700D0000EF66E000E26
:10FF9E00F76E1A0EF86E060EF56E0C00040E016E5C
:10FFAE00950EE82EFED7012EFCD700D0000EF66E71
:10FFBE00000EF76E1A0EF86E020EF56E0C00080E9D
:10FFCE00016E2C0EE82EFED7012EFCD700D0000EAF
:10FFDE00F66E000EF76E1A0EF86E010EF56E0C0030
:10FFEE00080E016E2C0EE82EFED7012EFCD700D087
:02FFFE001200EF
:020000040020DA
:08000000FFFFFFFFFFFFFFFF00
:020000040030CA
:0E0000001D036100018B81FFFFC0FFE0FF4088
:00000001FF
